:100000000C9434000C9449000C9449000C94490061
:100010000C9449000C9449000C9449000C9449003C
:100020000C9449000C9449000C9449000C9449002C
:100030000C9449000C9449000C9449000C9449001C
:100040000C9449000C9449000C9449000C9449000C
:100050000C9449000C9449000C9449000C944900FC
:100060000C9449000C94490011241FBECFEFD8E036
:10007000DEBFCDBF11E0A0E0B1E0E8E2F1E002C0F8
:1000800005900D92A831B107D9F70E944B000C944E
:1000900092000C940000CF93DF93CDB7DEB7689742
:1000A0000FB6F894DEBF0FBECDBF88E1E0E0F1E00F
:1000B000DE01119601900D928A95E1F78AB18C606C
:1000C0008AB95B9A5A9A1092C50087E48093C4005B
:1000D00088E08093C10086E08093C200E0ECF0E00D
:1000E00026EC30E04AE09981992369F0BE016E5F09
:1000F0007F4F808185FFFDCFD9019C93DB019D91CE
:10010000BD019111F6CF808185FFFDCFD9014C93C0
:10011000BFEF5FEB81E2B15050408040E1F700C09B
:080120000000E1CFF894FFCFCD
:1001280048656C6C6F2066726F6D2041546D656711
:08013800613332387020200011
:00000001FF
